:020000040800F2
:10000000B8080020A9010008E9240008CD23000851
:100010007D2400089D150008952A000800000000B6
:10002000000000000000000000000000ED240008B7
:100030009F15000800000000EB240008EF240008D2
:10004000C3010008C3010008C3010008C301000880
:10005000C3010008C3010008C3010008C301000870
:10006000C3010008C3010008C3010008C301000860
:10007000C3010008C3010008C3010008C301000850
:10008000C3010008C3010008C3010008C301000840
:10009000C3010008C3010008C3010008C301000830
:1000A000C3010008C3010008C3010008C301000820
:1000B000C3010008C3010008C3010008C301000810
:1000C000C3010008C3010008C3010008C301000800
:1000D000C30100085D2700080D280008C3010008BF
:1000E000C3010008C3010008C301000800F002F8C2
:1000F00000F04AF80AA090E8000C82448344AAF178
:100100000107DA4501D100F03FF8AFF2090EBAE875
:100110000F0013F0010F18BFFB1A43F0010318473B
:10012000DC350000FC350000103A24BF78C878C1E7
:10013000FAD8520724BF30C830C144BF04680C60ED
:10014000704700000023002400250026103A28BF35
:1001500078C1FBD8520728BF30C148BF0B60704739
:10016000662903F0FA81642900F04A800020704774
:100170001FB500F0ABFB04000020002102F014FDCD
:10018000E0601FBD10B510BD00F0B8FC1146FFF7D0
:10019000EFFF02F0F1FC00F0D6FC03B4FFF7F2FF32
:1001A00003BC00F017FD00000948804709480047DC
:1001B000FEE7FEE7FEE7FEE7FEE7FEE7FEE7FEE717
:1001C000FEE7FEE704480549054A064B7047000074
:1001D00051250008ED000008B8020020B8080020F2
:1001E000B8040020B80400200FB4044910B503AAD5
:1001F000029800F059FB10BC5DF814FB24000020AD
:100200002DE9F0410646002410687529314616A5EF
:1002100010D0AFF30080002802DA404213A507E0B7
:1002200031688A0701D512A502E0490704D511A556
:10023000012401E0AFF3008000210A2206F1240727
:1002400009E0B0FBF2FCB0FBF2F302FB1C00303023
:1002500078541846491C0028F3D123462A463046D4
:10026000BDE8F04100F0B9B8000000002D0000002A
:100270002B000000200000002DE9F0474FF0000A9D
:1002800089460446C0F820A02046E1688847002837
:1002900076D0252806D0D4E901219047206A401C59
:1002A0002062F1E7E168204600258847C4F81CA0D9
:1002B00006460027C4F818A02A2E09D0304602F0BE
:1002C0003BFC38B304EB8708303EC8F8186019E0EF
:1002D00059F8041B204604EB87029161E1688847C6
:1002E000012F064618D1E069002820DA25F0200504
:1002F0001DE0D8F8180000EB800006EB4000303815
:10030000C8F818002046E1688847064602F014FC49
:100310000028EED1012F0AD02E2E08D12046E16808
:1003200088477F1C0646022F45F02005C4DBA069E4
:10033000002803DA404245F00105A061E80701D03A
:1003400025F01005B6B1A6F14100192802D82036D3
:1003500045F400654A463146204625604D46FFF784
:10036000FFFE58B1012806D0ED1D25F0070000F171
:10037000080989E704E005F1040985E730468AE7C2
:10038000206ABDE8F0874FF0000200B5134694469E
:100390009646203922BFA0E80C50A0E80C50B1F1DD
:1003A0002001BFF4F7AF090728BFA0E80C5048BFF1
:1003B0000CC05DF804EB890028BF40F8042B08BF8F
:1003C000704748BF20F8022B11F0804F18BF00F88B
:1003D000012B70477047704770472DE9F0470D4675
:1003E00099469246044600F124080168880604D51F
:1003F000E06921F01001216000E00120A84201DD48
:10040000471B00E00027A1697A1902EB0900081ACE
:10041000A0612078C00602D42046AFF300800026F9
:1004200008E0D4E901211AF806009047206A401C30
:10043000761C20624E45F4DB2078C0060AD52046A3
:10044000AFF3008006E0D4E9012130209047206A14
:10045000401C2062381EA7F10107F4DC07E0D4E954
:10046000012118F805009047206A401C2062281ED0
:10047000A5F10105F3DC2046AFF3008020780006EB
:1004800002D50220BDE8F0870120FBE770472DE987
:10049000FF4F0C461E464FF0FF378BB0D2E90001EC
:1004A000DDF860800A908A46C1F30A5505B93D46D9
:1004B000002108464FF00000BAF1000F00F44000A0
:1004C00005DA00EB80004FF4400101EA50004FEAEA
:1004D0009059B9F1010F00DDB9460A9850EA4A0077
:1004E0000ED044F61050A5F2FF3545432F14B8F155
:1004F000000F1ED07542291E1EDDC9F100021CE04E
:10050000B8F1010F4FF0000001D0302103E0F243B9
:1005100005E02154401CB042FBDB304600220021A4
:1005200021540B99C1F80880C1E900200FB0BDE843
:10053000F08FBD1B6D1CDEE74A4600DA694206A853
:1005400000F066FA06AB93E8070003AB83E8070008
:1005500050460A9900F045FB8DE80700A0F50050D1
:100560001F3800900398002D09DD42F21F014A4612
:10057000084403A90390684600F0A4FD08E0A0F534
:1005800000504A461F3803A90390684600F0AEFDAC
:100590008DE807000004000C03D04FF0FF30410845
:1005A00000E01046B8F1000F03D00022009215467B
:1005B0001EE0751E05D400F08DF9303262556D1EB7
:1005C000F9D5B3460122084302D000227F1C04E083
:1005D0002078302801D100227F1E002A099786D07A
:1005E0001DE0112D07DA00F075F9303262556D1CEF
:1005F00050EA0102F5D1084302D00098C8B10EE0DC
:100600000021681E05E0235C625C63542254401E96
:10061000491C8142F7DBAB46A81B401E0990002015
:1006200004F80B000B98099AC0F80880C0E9002B69
:100630007CE711264FF0000859E72DE9F04F884676
:100640000446D21D22F0070191B0D1E90001CDE9A5
:100650000A0102F020FA02460B98C00F01D02D20AB
:1006600007E02068810701D52B2002E0202101EA64
:10067000C000032A099001D0072A05DB0346414642
:10068000204600F085F90BE12078800601D5E0696D
:1006900000E00620B8F1650F814606D0B8F1660F7C
:1006A00018D0B8F1670F70D131E00020B9F1110F07
:1006B000009001DB112301E009F101030AAA01A95D
:1006C0000CA8FFF7E4FEDDE90C70002609F1010536
:1006D000834647E001204B4600904FF000470AAAAE
:1006E00001A90CA8FFF7D3FEDDE90DB00C995D461A
:1006F000002610B909F101000D18B9EB050003D46B
:10070000C0F1FF3609F10105A5EB09002BE0B9F1B5
:10071000010F01DA4FF001090020B9F1110F00902B
:10072000484601DD112300E003460AAA01A90CA8EE
:10073000FFF7ADFEDDE90C704D46002683462078BC
:1007400000070AD4AB4500DA5D4601A8012D04DD9F
:10075000411911F8011C302907D04F4502DA17F171
:10076000040F04DA012082460FE06D1EEEE7002F31
:1007700002DCED1B3E4403E0781CA84200DD7D1C3A
:10078000B81B00F1010A4FF000472078000703D49E
:10079000AA4501DB4FF0FF3A0021B7F1004F0DF100
:1007A00043088DF8431024D002202B23002F01DAB8
:1007B0007F422D230A21021EA0F1010000DC5FB15F
:1007C00097FBF1FC97FBF1F201FB1C7C17460CF147
:1007D000300C08F801CDEEE7A8F101000370218884
:1007E000090501D5452100E06521A0F1010800F8C7
:1007F000011C09980FA9A1EB0807FF1D00B10120FA
:10080000411901EBEA70A1693844081A401EA06141
:100810002078C00602D42046AFF30080099828B1A2
:10082000D4E901219047206A401C20622078C0064C
:1008300022D52046AFF300801EE0002E04DBB34536
:1008400002DD01A8805D00E03020D4E9012190475D
:10085000206A401C2062761CAAF101005FEA000AAF
:100860000AD100F033F8C0680168405CD4E9012186
:100870009047206A401C2062281EA5F10105DCDC9F
:1008800007E0D4E9012118F8010B9047206A401CC9
:100890002062381EA7F10107F3DC2046AFF3008089
:1008A000032011B043E60000074B70B50D467B44B2
:1008B00000F05BF80446284600F018F910B14FF03C
:1008C000FF3070BD204670BDAB220000004870476D
:1008D0007402002030B5B0F10A024FEA900E71F1B7
:1008E00000034EEA817EB0EB0E0061EB91014FEA0E
:1008F000101E4EEA017E10EB0E0041EB11114FEA83
:10090000102E4EEA016E10EB0E0041EB11214FEA62
:10091000104E4EEA014E10EB0E0041EB1141401813
:1009200041F100014FEAD00040EA41704FEAD101A5
:1009300010EB80054FEA810444EA907444EB010413
:100940006D1944EB0404521BA3414FF0000348BF50
:100950000A3200D530BD401C41F1000130BD00001D
:1009600001694A1C02610878704700B58FB0CDE973
:1009700001310021059105497944CDE90310114663
:100980006846FFF779FC0FB000BD0000E5FFFFFFF0
:100990002DE9F0411F46044603260168072A01F4A9
:1009A000006004DB08B116A505E016A503E008B158
:1009B00015A500E015A521F010002060A069C01E5B
:1009C000A0610FB1401EA0612046AFF300804FB17F
:1009D000D4E9012138469047206A401C2062C01C9F
:1009E000206206E0206AFAE7D4E9012115F8010B3C
:1009F0009047761EF8D22046AFF30080BDE8F08124
:100A00004E414E006E616E00494E4600696E6600B2
:100A10002DE9F047814616468AB0334878440DC820
:100A20008DE80D0030487844801C03AC0DC884E884
:100A30000D0041F69B300844372190FBF1F290FB0A
:100A4000F1F5A5F1800501FB12041B3C02D56442BF
:100A5000012000E00020DFF890A080460027FA4443
:100A6000AAF1BE0A0DE0E00709D03246684607EB5E
:100A700047010AEB810100F039FB8DE807006410A3
:100A80007F1C002CEFD1184F7F44AC3F18E0E807E3
:100A900014D007EB04100DF1180A90E80E008AE854
:100AA0000E00C068F04201D198190890324606A99C
:100AB00003A800F01BFB03AB83E807006D10641C68
:100AC000002DE4D132466946B8F1000F03A802D0E8
:100AD00000F0F8FA01E000F009FBC9E90001C9F8EB
:100AE00008200AB0BDE8F087C42C0000007B00F0AD
:100AF0008000704700487047540200207546FFF799
:100B0000F9FFAE4605006946534620F007008546CA
:100B100018B020B5FFF756FBBDE820404FF00006A7
:100B20004FF000074FF000084FF0000B21F00701D5
:100B3000AC46ACE8C009ACE8C009ACE8C009ACE818
:100B4000C0098D4670470446AFF300802046FFF78A
:100B500024FB00004FF0013C50F8042B51F8043BFB
:100B60009A4221D1A2EB0C03934313EACC1317D181
:100B700050F8042B51F8043B9A4215D1A2EB0C0318
:100B8000934313EACC130BD150F8042B51F8043BD8
:100B90009A4209D1A2EB0C03934313EACC13DBD0A6
:100BA0004FF00000704700BFD01A01BAB1FA81F1CE
:100BB00001F0180122FA01F0CB40C1F12001DBB2B3
:100BC000C0B2C01A2CFA01F3D11A914311EAC31131
:100BD000E6D1704701491820ABBEFEE726000200AF
:100BE00070475FEA400C08BF91F0000F4FEA8C237A
:100BF0004FEAC12243EA51514FEA1C5018BF00F599
:100C0000F0404FEA300018BF41F000415FEA6C5CF1
:100C100000F02980BCF1FF3F08BF40F080407047E2
:100C2000130C06BF12044FF0100C4FF0000C130E03
:100C300004BF12020CF1080C130F04BF12010CF1D7
:100C4000040C930F04BF92000CF1020CD30F04BFED
:100C500052000CF1010C11464FF00002A0F11F00F0
:100C6000A0EB0C00704711F0004F08BF704731F047
:100C700000413FF4D5AF0B0C06BF09044FF0100C38
:100C80004FF0000C0B0E04BF09020CF1080C0B0F07
:100C900004BF09010CF1040C8B0F04BF89000CF197
:100CA000020CCB0F04BF49000CF1010CCCF1200366
:100CB000A0EB0C0022FA03F302FA0CF241EA030162
:100CC00000F10100704720F07F4C80EA030023F020
:100CD0007F47ACEB070303F57C5300F0004003F1C2
:100CE000FF032DE980494FEA154B09B44FEA14433D
:100CF00025EA0B4E24EA03480FF2042606EB1327DD
:100D000049083E785FEA320203FB0667C7F5000731
:100D100007FB06F64FEA54374FEAD64606F10206BD
:100D200007FB066CCCF1005C4FEA1C472CEA074C31
:100D300007FB06F40CFB06F504EB15464FEA961686
:100D400034BF00204FF000404FEAD13706FB07FCCC
:100D50004FEA1C4C0CFB0BF7D21B03FB0CF761EBAF
:100D600007010CFB0EF7B0EB074072EB17420CFBD0
:100D700008F734BFA2EB0742B2EB074261EB174121
:100D80004FEA0C444FEA910706FB07FC4FEA1C4C64
:100D90000CFB0BF7B0EBC74072EB573203FB0CF7C1
:100DA00034BFA2EBC742B2EBC74261EB57310CFB39
:100DB0000EF7B0EBC70072EB57720CFB08F734BFAD
:100DC000A2EBC702B2EBC70261EB5771039F4FEA78
:100DD000816141EA921104EBCC044FEAD1374FEA2A
:100DE000826206FB07FC42EA90124FEA80604FEAFB
:100DF0001C4C0CFB0BF7D21B03FB0CF761EB070140
:100E00000CFB0EF7B0EB074072EB17420CFB08F738
:100E100034BFA2EB0742B2EB074261EB17414FEA46
:100E20008C554FEA910704EB9C2406FB07FC4FEA24
:100E30001C4C0CFB0BF7B0EBC74072EB573203FBBB
:100E40000CF734BFA2EBC742B2EBC74261EB57319C
:100E50000CFB0EF7B0EBC70072EB57720CFB08F7F8
:100E600034BFA2EBC702B2EBC70261EB577115EBBF
:100E70004C254FEA816141EA92114FEA82624FEAC2
:100E8000D13742EA901206FB07FC44F100044FEA16
:100E900080604FEA1C4C0CFB0BF7D21B03FB0CF7DA
:100EA00061EB07010CFB0EF7B0EB074072EB17424A
:100EB0000CFB08F734BFA2EB0742B2EB074261EB31
:100EC000174115EB1C154FEA813141EA92414FEA77
:100ED000823242EA90424FEA80304FEA0C7644F187
:100EE000000448EA03434EEA0B484FF0000EB2EB11
:100EF000080C71EB030724BF624639464EEB0E0E19
:100F00004FF0000B0018524149414BEB0B0BB2EB79
:100F1000080C71EB03077BF1000B24BF62463946D6
:100F20004EEB0E0E4FF0000B0018524149414BEBB7
:100F30000B0BB2EB080C71EB03077BF1000B24BF2A
:100F4000624639464EEB0E0E51EA020718BF46F0D4
:100F5000010616EB0E7655F1000254F1000103D59F
:100F6000BDE88901BDE80088BDE88901BDE8004809
:100F7000B619524141EB0101A3F101037047808092
:100F80007F7E7D7C7B7A79787776767574737271E3
:100F900071706F6E6E6D6C6C6B6A6A69686867669B
:100FA00066656464636362616160605F5F5E5E5D2D
:100FB0005D5C5C5B5B5A5A595958585757565655A1
:100FC00055555454535352525251515050504F4F03
:100FD0004F4E4E4D4D4D4C4C4C4B4B4B4A4A4A4953
:100FE0004949484848474747474646464545454496
:100FF0004444444343434342424242414141002B23
:1010000026D4770021D01CB54FEA370703B44FF040
:1010100010004FF010014FF000000FBCBDE8104071
:101020000BF1010BBBF1010F08BF5FEA170722BFED
:1010300012F1010211F101014FF0004143F10003EF
:1010400000F0004043EA00007047F9D35708DAE7A0
:1010500046EA064613F1400F4FEA16461FDD13F12C
:10106000200FDFBF16430A46002120335B42C8D061
:10107000C3F1200746EA064602FA07F74FEA16468A
:1010800046EA0706C3F1200722FA03F201FA07F73E
:1010900021FA03F14FF0000342EA0702B1E746EA02
:1010A000020646EA06464FEA164646EA0106BCBF75
:1010B00046EA0646360C4FF000034FF000024FF0B0
:1010C00000019EE72DE9C048934630B491E838000E
:1010D00007C831EA400C48BF34EA430C03D5FFF798
:1010E000F2FDFFF78CFFF0BCBDE800882DE9C04899
:1010F000934630B491E8380007C810F0804F08BF1D
:1011000013F0804F03D100F005F8FFF778FFF0BC33
:10111000BDE8008820F07F4780EA030023F07F4C81
:1011200007EB0C03A3F57C5300F00040A3F1FE0392
:1011300092F0000F00F0B38095F0000F00F0778080
:101140002DE901494FEA11404FEA144621EA0048CF
:1011500000FB06FC24EA064708FB06F607FB08F836
:1011600000FB07F718EB06484CEB164C4FEA124B06
:1011700018EB07484FEA15464CEB174022EA0B4E96
:101180000BFB06FC25EA06470EFB06F607FB0EFEE8
:101190000BFB07F71EEB064E4CEB164C4FF0000610
:1011A0001EEB074E4CEB174B18EB0B0840F1000001
:1011B00018EB0E0B58EB000840F100008F1A4FF0AF
:1011C00000013CBFC943661B14BFB5EB040C0021F2
:1011D0003CBFC943F61B4FEA17444EEA8E0E27EA7E
:1011E00004454FEA1C4704FB07622CEA074C05FB49
:1011F00007F70CFB05F604FB0CFC16EB074642EB6D
:10120000174216EB0C4642EB1C421BEB060658EB52
:101210000202414146EA9E0601D5BDE80189B619A0
:10122000524141EB0101A3F10103BDE801894FEAFD
:1012300014454FEA114724EA054621EA074C05FB0D
:1012400007F406FB07F70CFB06F105FB0CFC11EBA2
:10125000074144EB17444FEA124711EB0C4144EBB2
:101260001C4422EA074C05FB07F206FB07F70CFBC0
:1012700006F605FB0CFC16EB074642EB174216EB95
:101280000C4642EB1C456A1854F1000148BF7047F8
:10129000B619524141EB0101A3F10103704795F0EA
:1012A000000F37D04FEA11424FEA144721EA0246B5
:1012B00024EA074C02FB07F106FB07F70CFB06F4D8
:1012C00002FB0CFC14EB074441EB17414FEA1547B6
:1012D00014EB0C4441EB1C4125EA074C02FB07F5DB
:1012E00006FB07F70CFB06F602FB0CFC16EB0746A9
:1012F00045EB174516EB0C4645EB1C42121951F114
:10130000000148BF7047B619524141EB0101A3F1FA
:10131000010370474FEA14454FEA114724EA054696
:1013200021EA074C05FB07F106FB07F70CFB06F269
:101330004FF0000605FB0CFC12EB074241EB174196
:1013400012EB0C4251EB1C4148BF7047921841EB25
:101350000101A3F1010370472DE9F041A0F10A0456
:101360005D4DDFF878815E4E5E4F084601F0A0FFCC
:10137000152C6ED2DFE804F00B131C1E2328303826
:1013800041494D555D656E767E879098A10056491E
:1013900001F0A2FF01F036FE2A46544B94E0544976
:1013A00001F09AFF01F02EFE4B4A524B52428BE065
:1013B000514923E0514901F08FFF514968E05149FB
:1013C00001F08AFF504963E0504901F085FF01F0C8
:1013D00019FE4F4A4F4B77E04F4901F07DFF01F076
:1013E00011FE4E4A4E4B6FE04E4901F075FF01F081
:1013F00009FE4FF066324C4B66E04C4901F06CFF41
:1014000001F000FE424633465EE0494901F064FFC8
:101410003DE0484901F060FF01F0F4FD464A474BCA
:1014200052E0474901F058FF01F0ECFD4246454BC0
:101430004AE0454901F050FF01F0E4FD434A444BC6
:1014400042E0444901F048FF01F0DCFD424A434BD1
:101450003AE03FE0424901F03FFF01F0D3FD414A4D
:10146000414B31E0414901F037FF01F0CBFD404AEB
:10147000404B29E0404901F02FFF01F0C3FD284B0C
:101480003E4AF63B20E04FF0FF3102F09AF8394631
:10149000BDE8F04101F0ECBF394901F01DFF01F05A
:1014A000B1FD2A46374B0FE0374901F015FF01F037
:1014B000A9FD294A354B524206E0354901F00CFF9F
:1014C00001F0A0FD334A344B01F0B2FCBDE8F0411D
:1014D00001F080BBBDE8F081F6285C8FAE47E17A71
:1014E000141E59400000C842B003A73EC2555940DF
:1014F000B9FCA73E3D0A594083C0AA3E849EAD3E3A
:101500000080C9420456AE3E0080C842567DAE3EC1
:101510009A999999992959406076AF3E54E3A59BD1
:10152000C4F85840508DB73E6626594040A4BF3E8F
:101530004BEAC43E280FCB3ECDCCCCCCCC2C594072
:1015400097FFD03E142E5940AB3ED73E713D0AD78F
:10155000A3205940F697DD3EB81E85EB510859404F
:10156000C1A8E43EC74B378941F058401FF4EC3E18
:10157000BC74931804FE5840E2E9F53E2B8716D957
:10158000787A053FC21559406C09093FAE2759408A
:10159000DC46033F3BDF4F8D97EE5840FEE7704738
:1015A00072B6FEE710B5A0F10A04084601F080FE0D
:1015B000122C68D2DFE804F00911196767676767C2
:1015C000676721293139424A525A2F4901F084FE76
:1015D00001F018FD2D4A2E4B4FE02E4901F07CFE04
:1015E00001F010FD2C4A2D4B47E02D4901F074FE0F
:1015F00001F008FD2B4A2C4B3FE02C4901F06CFE1A
:1016000001F000FD2A4A2B4B37E02B4901F064FE24
:1016100001F0F8FC294A2A4B2FE02A4901F05CFE30
:1016200001F0F0FC284A294B27E0294901F054FE3B
:1016300001F0E8FC184A274B52421EE0264901F00F
:101640004BFE01F0DFFC254A254B16E0254901F051
:1016500043FE01F0D7FC244A244B0EE0244901F05C
:101660003BFE01F0CFFC234A234B06E0234901F067
:1016700033FE01F0C7FC224A224B01F0D9FBBDE842
:10168000104001F0A7BA10BDCA32443DE926310826
:10169000ACDC28405F294B3D068195438B6C2A408A
:1016A00017D94E3DA01A2FDD248624400534913DE4
:1016B00044696FF085091C40992A983D265305A37B
:1016C00092FA1B405305A33D448B6CE7FB2918405D
:1016D000E86AAB3D74D316405986B83DE3A59BC478
:1016E000207012403945C73DCF66D5E76A6B14407C
:1016F0001904D63D7B832F4CA68A0E408B6CE73DA8
:10170000BA490C022B870E4010B590F82110002228
:10171000022905D00421816380F82020012010BD1A
:1017200001680B6823F00E030B6001680B6823F05F
:1017300001030B6090F84030C46B012101FA03F300
:10174000636080F8211080F82020104610BD000052
:1017500010B590F821100024022903D004218163E0
:1017600001243DE001680A6822F00E020A60016867
:101770000A6822F001020A601A4A0168914201D106
:10178000012121E0174A1432914201D110211BE0BE
:10179000144A2832914201D1891515E0114A3C3290
:1017A000914201D189140FE00E4A5032914202D188
:1017B0004FF4803108E00B4A6432914202D14FF479
:1017C000801101E04FF08071064A083A5160012112
:1017D00080F82110002180F82010416B01B188476A
:1017E000204610BD080002402DE9F84FDFF8B891FF
:1017F0000024A9F1040B23460F2709F1040AABF1D9
:10180000040EC9E00125A5402A40AA427DD1674EB9
:10181000D1F804C0ACEB0608B44532D014DCBCF1FE
:10182000030F3AD009DCBCF1000F2AD0BCF1010F44
:101830001CD0BCF1020F31D11DE0BCF1110F17D04B
:10184000BCF1120F2AD119E0B8F5881F19D006DCB7
:10185000B8F5803F15D0B8F5801F1FD111E0B8F55D
:10186000001F0ED0B8F5041F18D10AE0CB6815E0B0
:10187000CB681B1D12E0CB6808330FE0CB680C333C
:101880000CE08B682BB1012B4FF0080303D04561AE
:1018900004E0042302E0056100E00023FF2A01D8F0
:1018A000064601E000F104064FEA840501D9A5F1DE
:1018B0002005D6F8008007FA05FC28EA0C0803FA90
:1018C00005F548EA0508C6F800804D68ED0062D5C8
:1018D000374DAE6946F00106AE61AD6924F00306EE
:1018E00005F001050095334D06EB050CDCF80850BA
:1018F000A607360F07FA06F825EA0805DFF8B880CC
:10190000404503D14FF0000817E044E0DFF8AC8019
:10191000404502D14FF001080FE0DFF8A4804045B8
:1019200002D14FF0020808E0DFF89880404502D16C
:101930004FF0030801E04FF0040808FA06F848EAFF
:101940000508CCF808804D68D9F80060ED024D46D6
:1019500001D5164300E096432E604D68DAF800602A
:10196000AD02554601D5164300E096432E604D6802
:10197000DBF80060AD035D4601D5164300E09643F9
:101980002E604D68DEF80060ED03754601D5164304
:1019900000E096432E60641C0D682A46E5407FF403
:1019A00031AFBDE8F88F00000804014000001110BD
:1019B000001002400000014000080140000C0140FE
:1019C0000010014000140140014880687047000089
:1019D0000400002002488168027811448160704749
:1019E00004000020074810B5016841F010010160B3
:1019F000032000F075F80F2000F006F800F024F83E
:101A0000002010BD0020024070B50D4D04464FF47B
:101A10007A712878B1FBF0F00A490968B1FBF0F05F
:101A200000F0E8FA48B9102C07D200222146501ED7
:101A300000F036F800206C6070BD012070BD000021
:101A400004000020100000200C4808B5816941F016
:101A500001018161816901F001010091C16941F0D9
:101A60008051C161C06900F0805000900448416815
:101A700021F0E06141F00071416008BD00100240BA
:101A800000000140002809DB00F01F020121914005
:101A90004009800000F1E020C0F80011704700000C
:101AA000F0B40E4B1B680C46C3F30223C3F10705C9
:101AB000042D00D90425191D072901D2002300E0B7
:101AC000DB1E012606FA05F1491E214099409E4081
:101AD000761E16403143F0BC00F0F1BF0CED00E083
:101AE000064900F0070208684FF6FF03184040EA75
:101AF0000220034A10430860704700000CED00E02C
:101B00000000FA052DE9F0470F46050061D0434E6D
:101B1000306800F00700B84209D2306820F00700B2
:101B200038433060306800F00700B84251D128686F
:101B30003B4C810712D5400703D5606840F4E06054
:101B400060602878000703D5606840F460506060EA
:101B50006068A96820F0F000084360602878C0073A
:101B600028D06868012810D02168022810D0890781
:101B700000292EDA616821F0030101436160FFF75B
:101B800023FF804641F288390DE021688903EFE7A1
:101B90008901EDE7FFF718FFA0EB0801494502D9DD
:101BA0000320BDE8F0876068696800F00C00B0EBC6
:101BB000810FEFD1306800F00700B8420BD93068D0
:101BC00020F0070038433060306800F00700B8426A
:101BD00001D00120E5E72878400705D56068E9686D
:101BE00020F4E060084360602878000706D560684C
:101BF000296920F4605040EAC100606000F038F8C4
:101C00006168084AC1F30311515CC8400649086085
:101C100006480068FFF7F8FE0020C2E700200240F7
:101C2000001002405036000810000020080000207C
:101C30000448054900684968044AC1F30221515C1F
:101C4000C8407047100000200010024060360008B5
:101C50000448054900684968044AC1F3C221515C3F
:101C6000C840704710000020001002406036000895
:101C70000E4A51680E4801F00C03042B11D0082BBA
:101C80000FD10C48C1F38343C903C05C0AD5516826
:101C9000084AC1F34041921E515C054A5043B0FBD3
:101CA000F1F07047044948437047000000100240BB
:101CB00000127A004036000800093D002DE9F84F77
:101CC000040070D02078C04DC00749D06868C0F3C8
:101CD0008100012807D06868C0F38100022809D17B
:101CE0006868C00306D52868800339D56068002875
:101CF000E7D035E06068B0F5803F0BD010B1B0F5AB
:101D0000A02F11D0286820F480302860286820F4A3
:101D1000802002E0286840F480302860606890B13C
:101D2000FFF752FE06460AE0286840F4802028604B
:101D3000F0E700BFFFF748FE801B642873D82868CF
:101D40008003F7D50CE0FFF73FFE064605E000BF35
:101D5000FFF73AFE801B6428F0D828688003F7D488
:101D600020789A4E80074FF001094FF0000839D5CE
:101D7000686810F00C0F07D06868C0F38100022873
:101D800009D16868C00306D42868800714D5206983
:101D9000012808D110E02069B0B1C6F80090FFF723
:101DA00013FE074605E00AE1FFF70EFEC01B0228FE
:101DB000C4D828688007F7D52868616920F0F80042
:101DC00040EAC10028600DE0C6F80080FFF7FCFD86
:101DD000074604E0FFF7F8FDC01B022823D8286857
:101DE0008007F7D4207800072CD57948A169D9B1AC
:101DF000C0F80090FFF7E8FD074604E0FFF7E4FDB8
:101E0000C01B02280FD8686A8007F7D571484FF4C5
:101E1000FA510068B0FBF1F0009000BF0098411E3D
:101E20000091FAD20EE080E0C0F80080FFF7CCFD10
:101E3000074604E0FFF7C8FDC01B022875D8686A92
:101E40008007F7D42078400760D5E8690027C000F4
:101E500008D4E86940F08050E861E869012700F0A3
:101E6000805000905C480168C90513D4016883461E
:101E700041F480710160FFF7A7FD824606E000BFD4
:101E8000FFF7A2FDA0EB0A0064284ED8DBF80000A3
:101E9000C005F5D5E06801280AD008B1052813D09F
:101EA000286A20F001002862286A20F0040002E07D
:101EB000286A40F001002862E06841F2883B98B14E
:101EC000FFF782FD82460BE0286A40F0040028629A
:101ED000EEE700BFFFF778FDA0EB0A0159455AD89D
:101EE000286A8007F6D50CE0FFF76EFD824605E014
:101EF000FFF76AFDA0EB0A0159454CD8286A800714
:101F0000F6D41FB1E86920F08050E861E06988B339
:101F10006968C1F38101022944D00228C6F86080B3
:101F200004D0FFF751FD044638E034E0FFF74CFDE4
:101F3000074604E0FFF748FDC01B02282BD828689D
:101F40008001F7D4206AB0F5803F05D16868A168A8
:101F500020F4003008436860D4E908010843696848
:101F600021F4741108436860C6F86090FFF72CFDF7
:101F7000044606E025E000BFFFF726FD001B02280F
:101F800009D828688001F7D51BE000BFFFF71CFDCA
:101F9000001B022802D90320BDE8F88F28688001C1
:101FA000F4D40EE00128F7D06868226A00F480318A
:101FB000914204D1616A00F47010884201D001207E
:101FC000EAE70020E8E7000000100240000042427B
:101FD0008004424210000020007000404FF0E021D9
:101FE0000428086903D020F004000861704740F01D
:101FF0000400FAE710B5401EB0F1807F01D3012044
:1020000010BD4FF0E02460610F21601700F057FD14
:102010000020A06107202061002010BD704770479C
:10202000F8B5016804460868CA684B6910F00F0FDC
:102030004FF000055AD003F0010602F490773743C1
:1020400065D0C10705D0D10503D5616C41F0010110
:102050006164410705D5D90703D0616C41F00201E5
:102060006164810705D5D90703D0616C41F0040193
:102070006164010707D502F02001314303D0616C90
:1020800041F008016164616C00293BD0800604D5F1
:10209000900602D5204600F08BFA20684069616CFA
:1020A000C0F3801001F00801014320462BD000F05E
:1020B00058FA20684069400621D52068143050E85D
:1020C000001F21F0400140E80012002AF5D1E06B2A
:1020D000A8B16D494163E06BFFF73AFB002811D0CE
:1020E000E06B416B01B0BDE8F040084783060ED5B8
:1020F00093060CD52046BDE8F84000F059BA2046BA
:10210000FFF78DFFF8BDFFF78AFF6564F8BD266B0A
:102110002023012E7CD1C6067AD5D60678D508684C
:102120004868009048694FF00206400640D5E16BD0
:10213000086840680004000CE8D0A28D8242E5D90E
:10214000E085886920282DD020680C3050E8001FD9
:1021500021F4807140E80012002AF5D12168143181
:1021600051E8000F20F0010041E80002002AF5D1FB
:102170002068143050E8001F21F0400140E80012B0
:10218000002AF5D184F84230256320680C3050E8ED
:10219000001F21F0100140E80012002AF5D1E06B89
:1021A000FFF7B2FA6663A08DE18D401A81B22AE092
:1021B000A08DE18D401A81B2E08D0028A6D00029C3
:1021C000A4D022680C3252E8000F20F4907042E84C
:1021D0000007002FF5D12068143050E8002F22F0BE
:1021E000010240E80027002FF5D184F84230256332
:1021F00020680C3050E8002F22F0100240E8002345
:10220000002BF5D166632046FFF708FFF8BDFFE716
:1022100005062BD5150629D594F841002128F5D1BE
:10222000A068B0F5805F01D12069B0B1206A411C7F
:102230002162216800784860E08C401E0004000C98
:10224000E084E3D12068C16821F08001C16020688A
:10225000C16841F04001C160D8E7206A0088C0F33E
:1022600008004860206A801C2062E5E74006CDD562
:102270005006CBD5CA68204622F04002CA6084F8D6
:10228000413000F0A2F8C1E75325000870B5040002
:1022900004D094F84100002510B106E0012070BD83
:1022A00084F84050204600F023F8242084F84100B0
:1022B0002068C16821F40051C160204600F0DAF9BD
:1022C0002068016921F4904101612068416921F091
:1022D0002A0141612068C16841F40051C160656410
:1022E000202084F8410084F842006563002070BD1E
:1022F00070B586B0002400940194029403942E4E8D
:1023000003682E49022003222D4DB34226D18B694A
:1023100043F480438B618B6903F4804304938B699E
:1023200043F004038B618969039201F00401049175
:102330000102CDE9001069462846FFF755FA281535
:10234000CDE90004694628460294FFF74DFA0022C1
:1023500011462520FFF7A4FB252028E0194EB342A3
:1023600027D1CB6943F40033CB61CB6903F400334D
:1023700004938B6943F004038B618969039201F034
:10238000040104910421CDE9001069462846FFF7B5
:102390002BFA0820CDE90004694628460294FFF78D
:1023A00023FA002211462620FFF77AFB2620FFF7AA
:1023B00069FB06B070BD000000380140001002400B
:1023C000000801400044004070477047FEE70000ED
:1023D0000D4808B5816941F010018161816901F002
:1023E00010010091816941F020018161816901F052
:1023F00020010091816941F004018161806900F050
:102400000400009008BD0000001002400C4810B508
:102410000A4901604FF4E1314160002181600C22E2
:10242000C160C0E904128161C161FFF72FFF00287C
:1024300003D0BDE81040FFF7B3B810BD003801402D
:10244000340000200C4810B50A4901604FF4E13116
:102450004160002181600C22C160C0E904128161E9
:10246000C161FFF713FF002803D0BDE81040FFF75C
:1024700097B810BD004400407C000020FEE700003B
:10248000094881680968096889060CD507490A68FE
:10249000074B41685A54491C4160642903D100210B
:1024A000416001210170704718000020043801408C
:1024B0008C010020094881680968096889060CD5E3
:1024C00007490A68074B41685A54491C416064290E
:1024D00003D10021416001210170704728000020D4
:1024E00004440040F0010020FEE770477047FFF70A
:1024F00071BA30B58FB028216846FDF744FF14212A
:102500000AA8FDF740FF01210804CDE900100024CE
:10251000029402250491CDE907504FF4E010099090
:102520006846FFF7CBFB08B172B6FEE70F20CDE996
:102530000A054FF48060CDE90C4002210AA80E94F0
:10254000FFF7E0FA002801D072B6FEE70FB030BD09
:10255000704710B5406A0021C185C184FFF75FFD57
:1025600010BD01680C3151E8002F22F4907241E84F
:102570000023002BF5D10168143151E8002F22F01F
:10258000010241E80023002BF5D1016B012909D19B
:1025900001680C3151E8002F22F0100241E80023BD
:1025A000002BF5D1202180F84210002101637047F3
:1025B00008B590F84210222901D0022008BD826897
:1025C0004FF480539A4201D1016921B1816A9A4244
:1025D0001BD04AB10AE00268816A5268C2F308025D
:1025E0000A80816A891C08E0026972B10268526837
:1025F00002F07F020A70816A491C8162C18D491E06
:102600000904090CC18503D01BE002685268F1E798
:102610000168CA6822F02002CA600168CA6822F410
:102620008072CA6001684A6922F001024A61202171
:1026300080F8421000214163026B012A03D0FFF7AA
:10264000C3FE002008BD016301680C3151E8002F72
:1026500022F0100241E80023002BF5D101680A683E
:10266000D20602D50A6849680091818DFFF7D6FC31
:10267000E7E7000070B5044600680169E26821F4EC
:102680004051114301612169A06808436169084311
:102690002168CA6841F20C639A430243CA60206809
:1026A0004169A26921F44071114341611E492068CA
:1026B000884202D1FFF7CCFA01E0FFF7B9FA00EB4C
:1026C000C00101EB0012606864218000B2FBF0F3EE
:1026D000B3FBF1F36FF018067343B2FBF0F5B2FBF6
:1026E000F0F605EB8305322303EB0515B5FBF1F599
:1026F000B6FBF1F605F0F00505EB0615B2FBF0F6BA
:10270000B2FBF0F0B0FBF1F06FF01802504306EBB3
:10271000800003EB0010B0FBF1F0216800F00F0027
:102720002844886070BD0000003801400A4A01203A
:102730000849526808E00B1813F8013C0D2B02D130
:102740000B5C0A2B04D0401C9042F4D3002070474D
:10275000012070478C0100201800002010B50548AA
:10276000FFF78EFE0448FFF75BFCBDE8104003480E
:1027700000F010B80038014034000020C4000020F0
:10278000034988600068C16841F02001C16070475A
:102790001800002030B50546FFF7C8FF002815D007
:1027A0000C4800240C4A40680AE0115D295534B1F8
:1027B0002B1913F8013C0D2B01D10A2907D0641CF9
:1027C0008442F2D3204600F08BF9204630BD641CD1
:1027D000F8E70000180000208C0100200A4A0120C0
:1027E0000849526808E00B1813F8013C0D2B02D180
:1027F0000B5C0A2B04D0401C9042F4D3002070479D
:1028000001207047F0010020280000202DE9F04150
:102810004748FFF74FFE4748FFF702FC464800F0E5
:1028200015F9002830D04448444F41798278037923
:1028300001EB0261C2784578120402EB03221144D5
:102840008EB2017A8279090601EB8211C279007891
:1028500011448CB2012819D0DFF8E480022817D087
:1028600004282ED037A000BFFDF7BEFC29463BA0B0
:10287000FDF7BAFC3EA0FDF7B7FC41A0FDF7B4FCA4
:1028800043A0FDF7B1FC3C80BDE8F08144A0EBE73C
:1028900049A0FDF7A9FC294630A0FDF7A5FC21467B
:1028A0002846FEF759FD3988A14206D100F0AAFB5F
:1028B00002460B4645A0FDF797FC31A0FDF794FCBE
:1028C00027E047A0FDF790FC294624A0FDF78CFCEB
:1028D00021462846FEF766FE05463888A04218D1F4
:1028E000304600F0E5FC414600F020FC0146284659
:1028F00000F01CFC00F086FB02460B463DA0FDF7F5
:1029000073FC284600F07EFB02460B463EA0FDF716
:102910006BFC304600F0CCFC414600F007FC00F0B8
:1029200071FB02460B463EA0FDF75EFCABE70000E4
:10293000004400407C00002028010020000000200E
:102940000000284274342E7478743D22D5FDD4DA08
:10295000B2E2C1BF22FFFFFF0000000074352E74F9
:1029600078743D222564204D487A22FFFFFF000045
:1029700074362E7478743D222022FFFFFF00000081
:1029800074372E7478743D222022FFFFFF00000070
:1029900074392E7478743D222022FFFFFF0000005E
:1029A00074342E7478743D22CEB4B5F7D4D8B2A85E
:1029B00022FFFFFF0000000074342E7478743D2263
:1029C000414DB5F7D6C622FFFFFF000074362E74C6
:1029D00078743D22252E326620252522FFFFFF0038
:1029E00074342E7478743D22464DB5F7D6C622FF56
:1029F000FFFF000074362E7478743D22252E316658
:102A000022FFFFFF0000000074372E7478743D220F
:102A1000252E3166206B487A22FFFFFF0000000060
:102A200074392E7478743D22252E3166206B487AD5
:102A300022FFFFFF00000000034988600068C168B2
:102A400041F02001C16070472800002030B50546E4
:102A5000FFF7C4FE002815D00C4800240C4A40683B
:102A60000AE0115D295534B12B1913F8013C0D2BE7
:102A700001D10A2907D0641C8442F2D3204600F019
:102A800045F8204630BD641CF8E70000280000200F
:102A9000F0010020FEE7490050EAC12018BF0420E1
:102AA0004A0D18BF40F0010040F2FF72B2EB515FD7
:102AB00008BF40F00200012808BF05207047090741
:102AC000090E002804DB00F1E02080F800147047B4
:102AD00000F00F0000F1E02080F8141D70470000A6
:102AE00010B50021074AC0F1640303E00C18145D1F
:102AF0005454491C8B42F9D803494A68101A48605B
:102B000010BD00008C0100201800002010B500212D
:102B1000074AC0F1640303E00C18145D5454491CC7
:102B20008B42F9D803494A68101A486010BD00006A
:102B3000F00100202800002030380A2801D20120AE
:102B4000704700207047000010B504460420FFF7CE
:102B500045FA0148048010BD14000020044989682A
:102B600009680A685206FCD5024AC1B21160704772
:102B70001800002004380140FEF734FFFFF7B9FCCD
:102B8000FFF726FCFFF742FCFFF75CFC4820FFF74D
:102B9000DBFF0348FFF7F4FD0248FFF74DFFFEE7B8
:102BA000340000207C00002010B500290AD00878ED
:102BB000002807D005487844FDF7CCFF002801D055
:102BC000002010BD0248784410BD0000660B0000D4
:102BD0005E0B000021F00042A2F16052B2F5801FAE
:102BE00001F0004328BFD2F17F6C0BD95FEA001CD3
:102BF00043EAC20242EB507018BF704728BF20F072
:102C000001007047B2F5801FBCBF184670474FEAFD
:102C1000410C1CF5001F02D2084600F024BC70B520
:102C200000F0B2F800000089FFF7F6BF4FF0004057
:102C3000A0F580007047000010B591EA030F48BF6F
:102C400083F0004300F1FC80841A71EB030C05D281
:102C5000121943EB0C03001B61EB0C01DFF824E1BC
:102C60004FEA1154A4EB135C1EEA430F18BF9EEA0F
:102C7000445F73D023EA0E03DCF1200E21EA0451F5
:102C800043F4801332D322FA0CFE10EB0E0023FA29
:102C90000CFE41EB0E01CCF1200E03FA0EFE10EB00
:102CA0000E0051F10001B1F5801FCCF1200E32D29F
:102CB00001EB045112FA0EF2BDE8104058BF704704
:102CC000401C38BF5FEA420218BF7047002814BF9B
:102CD00020F0010041F100014FEA410313F5001F0C
:102CE00038BF7047A1F1C04100F09CB8012A43EB06
:102CF0000302ACF1200CDCF11F0E32BF4FF0000ECE
:102D000023FA0CF310EB030041EB0451B4EB115F19
:102D1000D0D0A1EB045101F5801149085FEA3000E1
:102D200001EB04510ED350F1000038BF12FA0EFE31
:102D300008D1BDE81040C9E7401C38BF5FEA420235
:102D4000CAD1C3E7BDE810404FEA410313F5001FA5
:102D500038BF7047A1F1C04100F064B89EEA445FFB
:102D600008D011EA5E0FBDE8104004BF01F0004139
:102D700000207047BDE8104070B500F005F800BFB6
:102D800064FBBE3E0000E0FF0EF1020E2EF0030ECB
:102D90005EF8046B364205D4012A43EB030515F5B2
:102DA000001F12D8012841EB010C1CF5001F0CD8A4
:102DB0000ED14FEAD17C15F5001F0CEB4C0C0CF139
:102DC000020C08BF4CEBD37C04E04FF0080C01E090
:102DD0004FEAD37C0CEB4C0526FA05F606F0070605
:102DE000B6F1040C06D20EEB860CBDE870404CF038
:102DF000010C6047DFE80CF0090B02024FF00041C4
:102E00004FF00000A1F5002170BD194610460128C1
:102E100051EB010418BFD4F5001484BF002001F069
:102E2000004170BD0808A0F500114FEA310170475C
:102E300010B591EA030F48BF83F000433FF504AF9C
:102E4000841A71EB030C07D212198CF0004C43EB7F
:102E50000C03001B61EB0C01DFF8A4E14FEA1154F5
:102E6000A4EB135C1EEA430F18BF9EEA445F00F018
:102E7000B08023EA6E03524221EA0451C3EB6E0391
:102E800038BF5B1EDCF1200E25D322FA0CFE10EBBE
:102E90000E0043FA0CFE41EB0E01CCF1200E03FABA
:102EA0000EFE10EB0E0051F10001CCF1200E29D4E2
:102EB00012FA0EF201EB0451BDE8104058BF704702
:102EC000401C1CBFB2F1004F704700280CBF491CCA
:102ED00020F00100704712EB020E43EB030218BF13
:102EE0004FF0010E4EEA4202ACF1200CDCF11E0E56
:102EF00054D943FA0CFE10EB0E0051F1FF31CCF126
:102F00001E0ED5D50EF1010E12FA0EFE404141EB18
:102F1000010101EB445C5FEA5C5C10D910EBDE70F0
:102F200001EB045138BFBEF1004FBDE8104018BF9F
:102F3000704700280CBF491C20F00100704730D2B8
:102F40004FEAD42C11F5001124F400641BD0B1FA1F
:102F500081F20B3AA41AA41ED2F12003914030FA58
:102F600003F31943904001EBCC71002C01EB0451A9
:102F7000BDE81040A8BF704701F1C0414FF000000C
:102F800001F000417047B0FA80F310FA03F100D16C
:102F900010BDE41A173C4805C90AE4E701EB0451E7
:102FA00010BD491001EB0451BDE810404FEA30005C
:102FB00002E04FF0000170474A0008BF0042F8D01D
:102FC000B2F5001F28BF704701F000414FF000002C
:102FD00070479EEA445F07D011EA5E0FBDE81040DB
:102FE00004BF002100207047BDE8104070B5FFF716
:102FF000CBFE00BF40DFF63E83F000411046704735
:103000000000E0FF43004FEAD30C4FEA3C0C434082
:103010001FBF40070CF1605113F0FE4F70471CF0CA
:10302000006F03D100200CF0004170470CF000430A
:1030300043EA507010B540EACC0000F0CEF900BF72
:10304000000000924FEA0001FFF7ECBE4FF0004194
:103050004FF00000A1F500217047000090EA010F39
:1030600048BF81F0004100F10A82421A3CBF801A39
:1030700089184FEAD0524FF07F4C1CEA410FA2EB67
:10308000D15318BF9CEA026F00F03B804FF0004C18
:103090004CEA00204CEA012121FA03FC10EB0C0C55
:1030A0001ED202F1FF325FEA1C2040EBC25038BF53
:1030B00070471CF07F0F4FEA400C18BFBCF17F4FE8
:1030C00038BF7047C3F12003994008BF20F00100CA
:1030D000BCF17F4F38BF7047A0F1C04000F0C3B9CA
:1030E0004FEA3C00000A40EBC25028BF1CF0FF0F23
:1030F0004FEA400CE6D018BFBCF17F4F38BF704795
:10310000EAE79CEA026F05D010EA5C0F08BF00F006
:103110000040704710B500F060F900BF64FBBE3E90
:10312000014800F01CBA00BF0000C07F4FF47F0CC4
:103130001CEAD0121EBF1CEAD11392EA0C0F93EACC
:103140000C0F00F0858090EA010F48BF42F48072B6
:1031500040F4000C41F400002CF07F4120F07F404F
:1031600000B58142A2EB03020FF2081CACEB504EFB
:10317000C0F100009EF800E04FEA4E0E00FB0EFC8E
:1031800038BF49004FEA2C1C02F5FA020CFB0EF383
:103190004FEACE1E4FEA112C4FEAC1210EEB635EBF
:1031A00042EB22420EFB0CFC4FEA1C5300FB0311C6
:1031B0004FEA112C4FEA01310EFB0CFC4FEADC4CBC
:1031C00000FB0C11C14228BF09184CEB03335DF81A
:1031D00004EB10EB410143EBC250B2F57C0F38BF5A
:1031E000704729D512F0F00F1CBF00F1C04000F06D
:1031F00000407047008182838485868788898B8C14
:103200008D8E8F919293959697999A9C9D9FA0A24F
:10321000A3A5A7A8AAACAEB0B2B3B5B7B9BCBEC09F
:10322000C2C5C7C9CCCED1D4D7D9DCDFE2E6E9EC40
:10323000F0F3F7FAFE0000004FEA400C0CF1807C3E
:10324000BCF17E4F28BF7047B0F1C04000F00BB911
:1032500090EA010F0CEAD11348BF42F48072624534
:1032600038BF634507D213F47F0F16D080EA010000
:1032700000F00040704710B500F0AFF8097EFC3E4A
:1032800000F005B880EA010000F00040704780EAD5
:10329000010000F0004000F0E6B812F47F0F04BF18
:1032A0000248704780EA010000F0DDB80000C07FEE
:1032B000B0FA80F310FA03F2C3F19D030AD0D905E6
:1032C00001EB1220530638BF704700F1010008BF20
:1032D00020F00100704700004FF47F0C1CEAD01270
:1032E0001EBF1CEAD11392EA0C0F93EA0C0F00F0F8
:1032F000478090EA010F48BF42F480724FF0004CC3
:103300004CEA00204CEA012102EB0302A0FB01136E
:10331000A2F50002002918BF43F001035B0028BF9B
:103320004FEA330342EB22425FEA132C4CEBC250CC
:103330002EBFBCEB436FB2F57C0F70474FEA036CB6
:10334000BCF1004F08BF20F00100B2F57C0F38BF80
:1033500070470BD582F0FF0212F5803FC8BF70475F
:1033600000F1C040D8BF00F00040704700F5000CED
:103370005FEA4C0C48BF7047B0F1C04000F073B832
:1033800090EA010F0CEAD11348BF42F48072624503
:1033900038BF634504D280EA010000F00040704766
:1033A00010B500F01AF800BF8900013E00F007B820
:1033B00000F009B85FEA410C5FEA1C6C08D080EAB3
:1033C000010000F050B85FEA400C5FEA1C6CF6D1D7
:1033D0004FF00040A0F5800070470EF1020E2EF075
:1033E000030E5EF8044B244204D44FEA4102B2F1CA
:1033F0007F4F11D84FEA4003B3F17F4F0CD80ED165
:103400004FEAD07CB2F17F4F0CEB4C0C0CF1020C6C
:1034100008BF4CEBD17C04E04FF0080C01E04FEA10
:10342000D17C0CEB4C0324FA03F404F00704B4F150
:10343000040C06D20EEB840CBDE810404CF0010CDD
:103440006047DFE80CF0070802024FF00040A0F5EB
:10345000800010BD0846420018BFD2F1807288BFBC
:1034600000F0004010BDFF2141EAD050C005704778
:1034700090EA010F48BF81F000413FF5F6AD421AD6
:1034800004D882F00042A0EB020011444FEAD0526F
:103490004FF07F4C1CEA410FA2EBD15318BF9CEABE
:1034A000026F4AD04FF0004C4CEA00204CEA012158
:1034B00021FA03FCB0EB0C0C0FD412F0FE0F36D047
:1034C0005FEA4C001DD5001240EBC25038BF704778
:1034D0001CF03F0F18BF70470BE0A2F101025FEA3A
:1034E0001C2040EBC25038BF70471CF07F0F18BF44
:1034F0007047C3F12003994014BF401E20F0010023
:10350000704780084FEA122308BF7047B0FA80FC6A
:10351000A2EB0C02CCF1280C60FA0CF093EA122F0B
:1035200004BF00EBC25070474FEAC3707047130AE4
:103530005FEADC1008BF7047F6E79CEA026F04D030
:1035400010EA5C0F08BF0020704710B5FFF745FF79
:1035500040DFF63E81F000407047FDF76EB80CF09A
:103560000F03092B08BF082000F051800A2B0BD055
:10357000082B18BF704708BF1CF0400F0AD04FF04F
:1035800000004FF0000170471CF0400F18BF4FF0D3
:10359000004070471CF0100F08D020F0704300F07E
:1035A0007F4242EAD3014FEA4370704700F0604027
:1035B00021F07F4242EA000201F07F4040EA72704F
:1035C00070474FF0FF0212EAD0521CBF92F0FF0387
:1035D0008B42C2BFD14200EBC1507047002A0AD0D3
:1035E000002B0BD0002900F00040A4BF40F0FE40AB
:1035F00040F40000704700F00040704743024FF075
:103600000B0C18BF4CF0806C7FF48AAD70471CF433
:10361000801F11D01CF4E02F03D06FEACC31490099
:1036200070474FF04050EFF3008222F0704242EAC0
:10363000000282F3008870474FF0000070470102DB
:1036400002030405060708090A0B0C0D0E0F1010E3
:103650000000000000000000010203040607080942
:10366000000000000102030402400000000000A06E
:103670000000000005400000000000C8000000003D
:103680000C4000000000409C0000000019400000B9
:103690000020BCBE0000000034400000BFC91B8EEB
:1036A00000000004B5400000504BCFD06607E2CFC9
:1036B000010000006C4100003E8251AADFEEA734F9
:1036C00001000000D9420000DCB5A0E23A301F97AB
:1036D000FFFFFFFFB4450000FD25A0C8E9A3C14FCF
:1036E000FFFFFFFFFF3F0000000000800000000020
:1036F000FF3F000000000080000000003837000895
:103700000000002034000000280100086C37000889
:103710003400002084080000440100081C00000060
:1037200043000000F8FFFFFF0C0000000E00000047
:103730000F0000002E00000000000000010000004B
:1037400010000000000000000024F4000000000051
:103750000000000000000000000000000000000069
:0C3760000000000000000000000000005D
:04000005080000ED02
:00000001FF
